:020000040800F2
:100000000028002075090008990700089F070008CC
:10001000A5070008AB070008B107000800000000B2
:10002000000000000000000000000000B70700080A
:10003000C307000800000000CF070008DB07000826
:10004000BD090008BD090008BD090008BD09000878
:10005000BD090008BD090008BD090008BD09000868
:10006000BD090008BD090008BD090008BD09000858
:10007000BD090008BD090008BD090008BD09000848
:10008000BD090008BD090008BD090008BD09000838
:10009000BD090008BD090008BD090008BD09000828
:1000A000BD090008BD090008BD090008BD09000818
:1000B000BD090008BD09000800000000BD090008D6
:1000C000BD0900080000000000000000BD09000894
:1000D00000000000BD090008BD0900080000000084
:1000E000BD090008BD090008BD09000800000000A6
:1000F0000000000000000000000000000000000000
:0C01000000000000000000005FF808F1A3
:10010C0010B5054C237833B9044B13B10448AFF345
:10011C0000800123237010BD7C0000200000000033
:10012C00542C000808B5034B1BB103490348AFF32B
:10013C00008008BD0000000080000020542C000846
:10014C00B0B596B000AF00F035FC00F04DFA00F001
:10015C0087FA5B4B07F128041D460FCD0FC495E8B9
:10016C00030084E8030000233B6500F0B5F8554B11
:10017C003C460FCB84E80F0000233B6100233B641B
:10018C000323FB6400237B654CE000F041F93864E9
:10019C000023BB6435E04C4ABB6C52F823309BB255
:1001AC0001221946494800F002FF0121474800F09E
:1001BC00E7FE0346002B06D0BB6CDB0058333B44F8
:1001CC0053F8303C3B650121414800F0D9FE034611
:1001DC00002B06D0BB6CDB0058333B4453F82C3C53
:1001EC003B65192000F048FC374ABB6C52F82330B1
:1001FC009BB200221946354800F0D9FEBB6C013386
:10020C00BB64BB6C022BC6DD3A6D3B6C9A4202D1CF
:10021C007B6D01337B65FB6C013BFB644FF47A70A7
:10022C0000F02AFCFB6C002BAFDC01224FF47C713C
:10023C00264800F0BCFE07F114037A6D25491846D8
:10024C0001F026FB00237B640EE007F114027B6CAB
:10025C0013441B780121184600F056F8322000F0A8
:10026C000BFC7B6C01337B6407F114027B6C134435
:10027C001B78002BE9D100237B640DE03A467B6CA4
:10028C0013441B780121184600F03EF8322000F090
:10029C00F3FB7B6C01337B643A467B6C13441B7819
:1002AC00002BEBD14FF42F7000F0E6FB0021012066
:1002BC0000F02AF84FF4617000F0DEFB60E700BF3D
:1002CC00702C0008882C0008000000200008014059
:1002DC00000C01406C2C000880B500AF00213820C8
:1002EC0000F012F800210C2000F00EF8002106207E
:1002FC0000F00AF80021012000F006F8002180200F
:10030C0000F002F800BF80BD80B584B000AF03469A
:10031C000A46FB711346BB71BB791A4640213B4818
:10032C0000F045FEFB7903F00103FB73FB7B1A46DF
:10033C004FF48071354800F03AFEFB795B08DBB274
:10034C0003F00103FB73FB7B1A464FF400712F483B
:10035C0000F02DFEFB799B08DBB203F00103FB736D
:10036C00FB7B1A464FF48061284800F020FEFB7995
:10037C00DB08DBB203F00103FB73FB7B1A464FF483
:10038C000061224800F013FEFB791B09DBB203F07D
:10039C000103FB73FB7B1A464FF480511B4800F0A2
:1003AC0006FEFB795B09DBB203F00103FB73FB7BFD
:1003BC001A464FF40051154800F0F9FDFB799B09E2
:1003CC00DBB203F00103FB73FB7B1A464FF4804155
:1003DC000E4800F0ECFDFB79DB09FB73FB7B1A4646
:1003EC004FF40041094800F0E2FD0022802107484B
:1003FC0000F0DDFD052000F03FFB012280210348C9
:10040C0000F0D5FD00BF1037BD4680BD000C01408B
:10041C0080B582B000AF01F0FDF90246704B83FB52
:10042C000231D317C91A0B465B000B445B00D31A7D
:10043C007B607B68012B1FD100221021694800F0E2
:10044C00B6FD01222021674800F0B1FD01224021B8
:10045C00644800F0ACFD01228021624800F0A7FD49
:10046C0001224FF480715F4800F0A1FD01224FF48E
:10047C0000715C4800F09BFD7B68022B1FD10122B0
:10048C001021584800F093FD00222021554800F01F
:10049C008EFD01224021534800F089FD012280216C
:1004AC00504800F084FD01224FF480714D4800F05B
:1004BC007EFD01224FF400714A4800F078FD7B6804
:1004CC00032B1FD101221021464800F070FD0122A0
:1004DC002021444800F06BFD00224021414800F0EF
:1004EC0066FD012280213F4800F061FD01224FF49E
:1004FC0080713C4800F05BFD01224FF400713948DB
:10050C0000F055FD7B68042B1FD1012210213548CA
:10051C0000F04DFD01222021324800F048FD01225F
:10052C004021304800F043FD002280212D4800F08E
:10053C003EFD01224FF480712A4800F038FD012263
:10054C004FF40071274800F032FD7B68052B1FD15A
:10055C0001221021234800F02AFD012220212148EC
:10056C0000F025FD012240211E4800F020FD012253
:10057C0080211C4800F01BFD00224FF480711948AB
:10058C0000F015FD01224FF40071164800F00FFD2C
:10059C007B68002B1FD101221021124800F007FDAF
:1005AC00012220210F4800F002FD012240210D48BC
:1005BC0000F0FDFC012280210A4800F0F8FC012229
:1005CC004FF48071074800F0F2FC00224FF40071E8
:1005DC00044800F0ECFC7B6818460837BD4680BD2B
:1005EC00ABAAAA2A0008014080B590B000AF07F171
:1005FC00180328220021184601F004F93B1D0022A3
:10060C001A605A609A60DA601A610223BB61012396
:10061C00BB621023FB6200237B6307F118031846AF
:10062C0000F0DEFC0346002B01D000F087F80F230E
:10063C007B600023BB600023FB6000233B61002335
:10064C007B613B1D0021184600F04CFF0346002B3C
:10065C0001D000F073F800BF4037BD4680BD0000EC
:10066C0080B586B000AF07F1080300221A605A600B
:10067C009A60DA602E4B9B692D4A43F00403936118
:10068C002B4B9B6903F004037B607B68284B9B69B5
:10069C00274A43F008039361254B9B6903F0080339
:1006AC003B603B68002240F2FE31224800F07FFCA8
:1006BC0000224FF6C071204800F079FC0123BB608A
:1006CC000023FB6000233B6107F10803194619481E
:1006DC0000F0DAFA40F2FE33BB600123FB6000232A
:1006EC003B6102237B6107F108031946114800F0B6
:1006FC00CBFA0123BB600023FB6000233B6107F1B5
:10070C00080319460C4800F0BFFA4FF6C073BB60E3
:10071C000123FB6000233B6102237B6107F108038B
:10072C001946054800F0B0FA00BF1837BD4680BD29
:10073C000010024000080140000C014080B400AFE2
:10074C0072B600BFFEE7000080B483B000AF0E4B62
:10075C009B690D4A43F0010393610B4B9B6903F0BA
:10076C0001037B607B68084BDB69074A43F08053CD
:10077C00D361054BDB6903F080533B603B6800BFE2
:10078C000C37BD4680BC70470010024080B400AFEF
:10079C00FEE780B400AFFEE780B400AFFEE780B4A4
:1007AC0000AFFEE780B400AFFEE780B400AF00BF3F
:1007BC00BD4680BC704780B400AF00BFBD4680BC56
:1007CC00704780B400AF00BFBD4680BC704780B599
:1007DC0000AF00F035F900BF80BD80B400AF01233D
:1007EC001846BD4680BC704780B582B000AF7860BB
:1007FC00396000F0DDFF034616221A604FF0FF331C
:10080C0018460837BD4680BD80B582B000AF786011
:10081C004FF0FF317868FFF7E7FFFEE780B586B051
:10082C0000AFF860B9607A6000237B610AE0AFF337
:10083C0000800146BB685A1CBA60CAB21A707B6948
:10084C0001337B617A697B689A42F0DB7B681846DE
:10085C001837BD4680BD80B586B000AFF860B96072
:10086C007A6000237B6109E0BB685A1CBA601B7874
:10087C001846AFF300807B6901337B617A697B6832
:10088C009A42F1DB7B6818461837BD4680BD80B4B0
:10089C0083B000AF78604FF0FF3318460C37BD467D
:1008AC0080BC704780B483B000AF786039603B681F
:1008BC004FF400525A60002318460C37BD4680BCDA
:1008CC00704780B483B000AF7860012318460C37B2
:1008DC00BD4680BC704780B485B000AFF860B9608D
:1008EC007A60002318461437BD4680BC7047000060
:1008FC0080B586B000AF7860144A154BD31A7B6173
:10090C007B693B61134B1B68002B02D1114B124AC4
:10091C001A60104B1A687B6813443A699A4207D2E2
:10092C0000F046FF03460C221A604FF0FF3309E03B
:10093C00084B1B68FB60074B1A687B681344054A1D
:10094C001360FB6818461837BD4680BD0028002090
:10095C000004000098000020B000002080B400AF1C
:10096C0000BFBD4680BC70470C480D490D4A0023A2
:10097C0002E0D458C4500433C4188C42F9D30A4A48
:10098C000A4C002301E013600432A242FBD3FFF7B0
:10099C00E5FF00F013FFFFF7D3FB704700000020CA
:1009AC007C0000200C2E00087C000020B0000020F1
:1009BC00FEE7000080B500AF084B1B68074A43F008
:1009CC0010031360032000F02BF90F2000F008F83F
:1009DC00FFF7BAFE0023184680BD00BF002002407E
:1009EC0080B582B000AF7860124B1A68124B1B783E
:1009FC0019464FF47A73B3FBF1F3B2FBF3F31846D9
:100A0C0000F035F90346002B01D001230EE07B6882
:100A1C000F2B0AD8002279684FF0FF3000F00BF949
:100A2C00064A7B681360002300E001231846083750
:100A3C00BD4680BD0C0000201400002010000020DA
:100A4C0080B400AF054B1B781A46054B1B6813444A
:100A5C00034A136000BFBD4680BC704714000020E1
:100A6C009C00002080B400AF024B1B681846BD46AA
:100A7C0080BC70479C00002080B584B000AF7860CB
:100A8C00FFF7F0FFB8607B68FB60FB68B3F1FF3FDA
:100A9C0005D00A4B1B781A46FB681344FB6000BF59
:100AAC00FFF7E0FF0246BB68D31AFA689A42F7D800
:100ABC0000BF00BF1037BD4680BD00BF1400002032
:100ACC0080B485B000AF78607B6803F00703FB60EF
:100ADC000C4BDB68BB60BA684FF6FF031340BB607E
:100AEC00FB681A02BB68134343F0BF6343F4003343
:100AFC00BB60044ABB68D36000BF1437BD4680BCE2
:100B0C00704700BF00ED00E080B400AF044BDB6821
:100B1C001B0A03F007031846BD4680BC704700BF94
:100B2C0000ED00E080B483B000AF03463960FB7188
:100B3C0097F90730002B0ADB3B68DAB20C4997F9BE
:100B4C0007301201D2B20B4483F800230AE03B6851
:100B5C00DAB20849FB7903F00F03043B1201D2B25D
:100B6C000B441A7600BF0C37BD4680BC704700BFE3
:100B7C0000E100E000ED00E080B489B000AFF86067
:100B8C00B9607A60FB6803F00703FB61FB69C3F192
:100B9C000703042B28BF0423BB61FB690433062B1A
:100BAC0002D9FB69033B00E000237B614FF0FF326D
:100BBC00BB6902FA03F3DA43BB681A407B699A40BB
:100BCC004FF0FF317B6901FA03F3D9437B680B408B
:100BDC00134318462437BD4680BC704780B582B09D
:100BEC0000AF78607B68013BB3F1807F01D30123B8
:100BFC000FE00A4A7B68013B53600F214FF0FF3036
:100C0C00FFF790FF054B00229A60044B07221A60F5
:100C1C00002318460837BD4680BD00BF10E000E039
:100C2C0080B582B000AF78607868FFF749FF00BFED
:100C3C000837BD4680BD80B586B000AF0346B960AD
:100C4C007A60FB7300237B61FFF75EFF78617A6843
:100C5C00B9687869FFF790FF024697F90F30114693
:100C6C001846FFF75FFF00BF1837BD4680BD80B543
:100C7C0082B000AF78607868FFF7B0FF0346184683
:100C8C000837BD4680BD000080B48BB000AF7860E3
:100C9C00396000237B6200233B6261E101227B6AA5
:100CAC0002FA03F3FB613B681B68FA691340BB61F2
:100CBC00BA69FB699A4240F050813B685B68974A7D
:100CCC0093425ED0954A934275D8954A934258D038
:100CDC00934A93426FD8934A934252D0914A93428B
:100CEC0069D8914A93424CD08F4A934263D88F4A29
:100CFC00934246D08D4A93425DD8122B2AD8122BA0
:100D0C0059D801A252F823F08F0D0008690D000884
:100D1C007B0D0008BD0D0008C30D0008C30D0008B5
:100D2C00C30D0008C30D0008C30D0008C30D000857
:100D3C00C30D0008C30D0008C30D0008C30D000847
:100D4C00C30D0008C30D0008C30D0008710D000889
:100D5C00850D0008764A934213D02CE03B68DB6883
:100D6C003B6229E03B68DB6804333B6224E03B6870
:100D7C00DB6808333B621FE03B68DB680C333B628B
:100D8C001AE03B689B68002B02D104233B6213E002
:100D9C003B689B68012B05D108233B627B68FA6991
:100DAC001A6109E008233B627B68FA695A6103E027
:100DBC0000233B6200E000BFBB69FF2B01D87B68BE
:100DCC0001E07B6804337B61BB69FF2B02D87B6A33
:100DDC009B0002E07B6A083B9B003B617B691A68C5
:100DEC000F213B6901FA03F3DB431A40396A3B6973
:100DFC0001FA03F31A437B691A603B685B6803F0E2
:100E0C008053002B00F0A9804A4B9B69494A43F060
:100E1C0001039361474B9B6903F00103BB60BB6803
:100E2C00454A7B6A9B08023352F82330FB607B6A8D
:100E3C0003F003039B000F2202FA03F3DB43FA686F
:100E4C001340FB607B683D4A93420DD07B683C4A63
:100E5C00934207D07B683B4A934201D1022304E0C2
:100E6C00032302E0012300E000237A6A02F003026C
:100E7C0092009340FA681343FB602F497B6A9B08EE
:100E8C000233FA6841F823203B685B6803F4803333
:100E9C00002B06D02C4B1A682B49BB6913430B60F3
:100EAC0006E0294B1A68BB69DB43274913400B60EA
:100EBC003B685B6803F40033002B06D0224B5A6866
:100ECC002149BB6913434B6006E01F4B5A68BB6951
:100EDC00DB431D4913404B603B685B6803F4801394
:100EEC00002B06D0184B9A681749BB6913438B60CB
:100EFC0006E0154B9A68BB69DB43134913408B60C2
:100F0C003B685B6803F40013002B1FD00E4BDA68B0
:100F1C000D49BB691343CB601FE000BF00003210CA
:100F2C0000003110000022100000211000001210EF
:100F3C0000001110001002400000014000080140A8
:100F4C00000C014000100140000401400B4BDA681A
:100F5C00BB69DB4309491340CB607B6A01337B627D
:100F6C003B681A687B6A22FA03F3002B7FF496AE77
:100F7C0000BF00BF2C37BD4680BC70470004014049
:100F8C0080B485B000AF78600B467B807B689A6834
:100F9C007B881340002B02D00123FB7301E000235C
:100FAC00FB73FB7B18461437BD4680BC704780B47E
:100FBC0083B000AF78600B467B8013467B707B78E8
:100FCC00002B03D07A887B681A6103E07B881A04B3
:100FDC007B681A6100BF0C37BD4680BC70470000AF
:100FEC0080B586B000AF78607B68002B01D10123FF
:100FFC0072E27B681B6803F00103002B00F0878012
:10100C00924B5B6803F00C03042B0CD08F4B5B688A
:10101C0003F00C03082B12D18C4B5B6803F4803368
:10102C00B3F5803F0BD1894B1B6803F40033002BC5
:10103C006CD07B685B68002B68D101234CE27B6829
:10104C005B68B3F5803F06D1804B1B687F4A43F445
:10105C00803313602EE07B685B68002B0CD17B4BDC
:10106C001B687A4A23F480331360784B1B68774AE9
:10107C0023F4802313601DE07B685B68B3F5A02F1D
:10108C000CD1724B1B68714A43F4802313606F4B75
:10109C001B686E4A43F4803313600BE06B4B1B6888
:1010AC006A4A23F480331360684B1B68674A23F445
:1010BC00802313607B685B68002B13D0FFF7D2FC96
:1010CC00386108E0FFF7CEFC02463B69D31A642B6B
:1010DC0001D9032300E25D4B1B6803F40033002BA2
:1010EC00F0D014E0FFF7BEFC386108E0FFF7BAFC63
:1010FC0002463B69D31A642B01D90323ECE1534B11
:10110C001B6803F40033002BF0D100E000BF7B68B8
:10111C001B6803F00203002B63D04C4B5B6803F09D
:10112C000C03002B0BD0494B5B6803F00C03082B12
:10113C001CD1464B5B6803F48033002B16D1434B18
:10114C001B6803F00203002B05D07B681B69012B85
:10115C0001D00123C0E13D4B1B6823F0F8027B68F2
:10116C005B69DB00394913430B603AE07B681B6910
:10117C00002B20D0364B01221A60FFF773FC38612C
:10118C0008E0FFF76FFC02463B69D31A022B01D92A
:10119C000323A1E12D4B1B6803F00203002BF0D0BD
:1011AC002A4B1B6823F0F8027B685B69DB0027493C
:1011BC0013430B6015E0264B00221A60FFF752FC1C
:1011CC00386108E0FFF74EFC02463B69D31A022B4C
:1011DC0001D9032380E11D4B1B6803F00203002B94
:1011EC00F0D17B681B6803F00803002B3AD07B68B6
:1011FC009B69002B19D0174B01221A60FFF732FCA8
:10120C00386108E0FFF72EFC02463B69D31A022B2B
:10121C0001D9032360E10D4B5B6A03F00203002B41
:10122C00F0D0012000F0A6FA1CE00A4B00221A6054
:10123C00FFF718FC38610FE0FFF714FC02463B691E
:10124C00D31A022B08D9032346E100BF0010024039
:10125C000000424280044242924B5B6A03F002035C
:10126C00002BE9D17B681B6803F00403002B00F012
:10127C00A6800023FB758B4BDB6903F08053002B9E
:10128C000DD1884BDB69874A43F08053D361854B82
:10129C00DB6903F08053BB60BB680123FB75824B99
:1012AC001B6803F48073002B18D17F4B1B687E4A9C
:1012BC0043F480731360FFF7D5FB386108E0FFF748
:1012CC00D1FB02463B69D31A642B01D9032303E1FA
:1012DC00754B1B6803F48073002BF0D07B68DB68C4
:1012EC00012B06D16F4B1B6A6E4A43F0010313624C
:1012FC002DE07B68DB68002B0CD16A4B1B6A694ABA
:10130C0023F001031362674B1B6A664A23F0040344
:10131C0013621CE07B68DB68052B0CD1614B1B6AEC
:10132C00604A43F0040313625E4B1B6A5D4A43F050
:10133C00010313620BE05B4B1B6A5A4A23F0010357
:10134C001362584B1B6A574A23F0040313627B68E1
:10135C00DB68002B15D0FFF785FB38610AE0FFF73F
:10136C0081FB02463B69D31A41F28832934201D980
:10137C000323B1E04B4B1B6A03F00203002BEED0AE
:10138C0014E0FFF76FFB38610AE0FFF76BFB0246D6
:10139C003B69D31A41F28832934201D903239BE073
:1013AC00404B1B6A03F00203002BEED1FB7D012B9B
:1013BC0005D13C4BDB693B4A23F08053D3617B68FE
:1013CC00DB69002B00F08780364B5B6803F00C0365
:1013DC00082B61D07B68DB69022B46D1334B002292
:1013EC001A60FFF73FFB386108E0FFF73BFB024652
:1013FC003B69D31A022B01D903236DE0294B1B68DF
:10140C0003F00073002BF0D17B681B6AB3F5803FAF
:10141C0008D1244B5B6823F400327B689B6821491C
:10142C0013434B601F4B5B6823F474127B68196A7F
:10143C007B685B6A0B431B4913434B601B4B0122BC
:10144C001A60FFF70FFB386108E0FFF70BFB024651
:10145C003B69D31A022B01D903233DE0114B1B68C6
:10146C0003F00073002BF0D035E0104B00221A6013
:10147C00FFF7F8FA386108E0FFF7F4FA02463B6927
:10148C00D31A022B01D9032326E0064B1B6803F069
:10149C000073002BF0D11EE07B68DB69012B07D1B8
:1014AC00012319E00010024000700040600042422D
:1014BC000B4B5B68FB60FB6803F480327B681B6A38
:1014CC009A4206D1FB6803F470127B685B6A9A42FD
:1014DC0001D0012300E0002318461837BD4680BD1B
:1014EC000010024080B584B000AF786039607B6832
:1014FC00002B01D10123D0E06A4B1B6803F00703DA
:10150C003A689A4210D9674B1B6823F00702654969
:10151C003B6813430B60634B1B6803F007033A688B
:10152C009A4201D00123B8E07B681B6803F00203E8
:10153C00002B20D07B681B6803F00403002B05D024
:10154C00594B5B68584A43F4E06353607B681B68F3
:10155C0003F00803002B05D0534B5B68524A43F44D
:10156C0060535360504B5B6823F0F0027B689B68C0
:10157C004D4913434B607B681B6803F00103002B40
:10158C0040D07B685B68012B07D1474B1B6803F489
:10159C000033002B15D101237FE07B685B68022BA5
:1015AC0007D1414B1B6803F00073002B09D10123B9
:1015BC0073E03D4B1B6803F00203002B01D10123A8
:1015CC006BE0394B5B6823F003027B685B68364940
:1015DC0013434B60FFF746FAF8600AE0FFF742FA54
:1015EC000246FB68D31A41F28832934201D9032395
:1015FC0053E02D4B5B6803F00C027B685B689B002F
:10160C009A42EBD1274B1B6803F007033A689A42C6
:10161C0010D2244B1B6823F0070222493B6813436A
:10162C000B60204B1B6803F007033A689A4201D009
:10163C00012332E07B681B6803F00403002B08D005
:10164C00194B5B6823F4E0627B68DB681649134333
:10165C004B607B681B6803F00803002B09D0124B0E
:10166C005B6823F460527B681B69DB000E491343F3
:10167C004B6000F021F802460B4B5B681B0903F032
:10168C000F030A49CB5C22FA03F3094A1360094B96
:10169C001B681846FFF7A4F9002318461037BD46FF
:1016AC0080BD00BF0020024000100240AC2C00089E
:1016BC000C0000201000002090B48AB000AF294B21
:1016CC003C1D0FCB84E80F0040F201233B8000232C
:1016DC00FB610023BB6100237B6200237B61002341
:1016EC003B62214B5B68FB61FB6903F00C03042B31
:1016FC0002D0082B03D02BE01C4B3B622BE0FB6988
:10170C009B0C03F00F0328333B4413F8243C7B6100
:10171C00FB6903F48033002B12D0134B5B685B0C1A
:10172C0003F0010328333B4413F8283CBB617B696D
:10173C000E4A03FB02F2BB69B2FBF3F37B6204E0DB
:10174C007B690B4A02FB03F37B627B6A3B6202E020
:10175C00064B3B6200BF3B6A18462837BD4690BC1F
:10176C00704700BF9C2C00080010024000127A0049
:10177C0000093D0080B485B000AF78600A4B1B684F
:10178C000A4AA2FB03235B0A7A6802FB03F3FB60A1
:10179C0000BFFB685A1EFA60002BF9D100BF00BFD6
:1017AC001437BD4680BC70470C000020D34D62102E
:1017BC00014B1868704700BF1800002070B5002658
:1017CC000C4D0D4C641BA410A64209D101F03CFA3F
:1017DC0000260A4D0A4C641BA410A64205D170BD0C
:1017EC0055F8043B98470136EEE755F8043B98470B
:1017FC000136F2E7042E0008042E0008042E00081F
:10180C00082E000803460244934200D1704703F8A7
:10181C00011BF9E7164B10B51C68A36BB3B9182064
:10182C0000F086F80246A06320B94E21114B1248F5
:10183C0000F04EF81149124BC0E90013114B002176
:10184C0083600B2383810120C2E90401A46B0E4A3F
:10185C002069636942430D4901FB0322A0FB01018E
:10186C00431C42EB0100C4E9043020F0004010BDE1
:10187C0018000020C02C0008D72C00080E33CDAB6C
:10188C0034126DE6ECDE05002DF451582D7F954C8D
:10189C000EB46FF0004100B59CB01DAB02900690E9
:1018AC00079104910848094953F8042B05910068E5
:1018BC0002A9019300F07CF90022029B1A701CB063
:1018CC005DF804EB03B07047180000200802FFFF1E
:1018DC001FB514461A46094B05461B68D8684CB10F
:1018EC00074BCDE9013400912B46064900F00EF868
:1018FC0000F01CFE044B1C46F3E700BF1800002050
:10190C00322D00083F2D00086D2D00080EB403B5D4
:10191C00014603AB054853F8042B0068019300F013
:10192C006FFA02B05DF804EB03B0704718000020AA
:10193C00024B0146186800F06BB800BF180000207D
:10194C0038B50546002940D051F8043C0C1F002B3B
:10195C00B8BFE41801F044F81C4A136833B963604B
:10196C0014602846BDE8384001F040B8A34208D9BD
:10197C00206821188B4201BF19685B680918216027
:10198C00EDE71A465B680BB1A342FAD911685018FF
:10199C00A0420BD120680144501883421160E0D161
:1019AC0018685B68014411605360DAE702D90C23B4
:1019BC002B60D6E7206821188B4201BF19685B6841
:1019CC000918216063605460CBE738BDA00000208B
:1019DC0070B50E4E0C463168054611B900F0D6FCB8
:1019EC0030602146284600F0D1FC431C0AD0C41CB0
:1019FC0024F00304A04207D0211A284600F0C6FCAC
:101A0C00013001D14FF0FF34204670BDA4000020FE
:101A1C002DE9F041CD1C25F0030508350C2D38BF00
:101A2C000C25002D074601DBA94205D90C23002605
:101A3C003B603046BDE8F0812E4E00F0D1FF33689C
:101A4C001C4634BB29463846FFF7C2FF431C0446EC
:101A5C004DD134682646002E40D123683146384695
:101A6C0004EB030800F092FC80453AD12168033561
:101A7C006D1A25F0030508350C2D38BF0C2538469A
:101A8C002946FFF7A5FF01302BD023682B44236098
:101A9C000EE02268521B1ED40B2A16D96119A342E0
:101AAC00256018BF5960636808BF316062514B6094
:101ABC00384604F10B0600F099FF26F00706231DAB
:101ACC00F21AB6D09B1BA350B3E76268A3420CBFBB
:101ADC0032605A60ECE723466468B2E734467668B5
:101AEC00B9E70C2338463B6000F080FFA1E7256086
:101AFC00DEE700BFA00000202DE9F0478E6882468B
:101B0C009E420C4690461F4638D88A8912F4906F34
:101B1C0032D0256809690133A5EB010965694B448D
:101B2C0005EB450505EBD5756D109D4238BF1D467F
:101B3C00530531D52946FFF76BFF064650B90C23E8
:101B4C004FF0FF30CAF80030A38943F04003A38163
:101B5C00BDE8F0874A46216900F01AFFA38923F4F7
:101B6C00906343F08003A38126614E4426603E4679
:101B7C006561A5EB0905A560BE4200D93E4632461B
:101B8C004146206800F012FFA36800209B1BA36055
:101B9C00236833442360DBE72A4600F02DFF06461A
:101BAC000028E1D150462169FFF7CAFEC7E70000C3
:101BBC002DE9F04F98468B8907461B060D461446B7
:101BCC009DB00ED50B6963B94021FFF721FF28604A
:101BDC00286120B90C233B604FF0FF30D1E040234B
:101BEC006B610023099320238DF8293030234FF0AB
:101BFC000109CDF80C80DFF8A4818DF82A3023463A
:101C0C009A4613F8012B0AB1252AF9D1BAEB040B29
:101C1C000BD05B46224629463846FFF76DFF013054
:101C2C0000F0AA80099A5A4409929AF80030002BC5
:101C3C0000F0A28000234FF0FF32CDE905230AF11A
:101C4C00010A049307938DF853301A9354460522D6
:101C5C0014F8011B514800F08DFE049AD8B9D00637
:101C6C0044BF20238DF85330110744BF2B238DF82C
:101C7C0053309AF800302A2B15D0544600204FF0E0
:101C8C000A0C079A214611F8013B303B092B4ED91F
:101C9C00B0B1079214E0A0EB080309FA03F3134365
:101CAC00A2460493D2E7039B191D1B680391002BDA
:101CBC00BBBF5B4242F0020207930793B8BF04928A
:101CCC0023782E2B0CD163782A2B35D1039B02342D
:101CDC001A1D1B680392002BB8BF4FF0FF330593FE
:101CEC00DFF8BCA003225046217800F043FE40B13F
:101CFC004023A0EB0A0003FA00F0049B01340343D9
:101D0C00049314F8011B062226488DF8281000F0C5
:101D1C0031FE002838D0244B1BBB039B073323F028
:101D2C00070308330393099B3344099367E70C4675
:101D3C0001200CFB0232A5E700234FF00A0C1946D8
:101D4C0001340593204610F8012B303A092A03D9A7
:101D5C00002BC5D00591C3E7044601230CFB0121E0
:101D6C00F0E703AB00932A463846104B04A9AFF3B7
:101D7C000080421C0646D6D1AB895B063FF52CAFE2
:101D8C0009981DB0BDE8F08F03AB00932A46384686
:101D9C00064B04A900F0D4F9EBE700BF6E2D000848
:101DAC00742D0008782D000800000000051B0008A9
:101DBC00936810B4013B002B936007DA9469A3423B
:101DCC0001DB0A2902D110BC00F0F0BA1368581CD0
:101DDC0010601970084610BC7047F8B506460F46DF
:101DEC001446D518AC4201D1002007E03A463046E3
:101DFC0014F8011BFFF7DCFF431CF3D1F8BD000006
:101E0C002DE9F04F0D461446984606469DB018B184
:101E1C0083690BB900F0A8FC894B9D421BD17568F6
:101E2C006B6ED90705D4AB899A0502D4A86D00F066
:101E3C0039FDAB891B0701D52B69EBB92946304617
:101E4C0000F006FBC0B16B6EDC070ED54FF0FF3017
:101E5C001DB0BDE8F08F7B4B9D4201D1B568DFE72B
:101E6C00794B9D4208BFF568DAE7AB899805EDD44C
:101E7C00A86D00F018FDE9E70023099320238DF8E5
:101E8C00293030234FF00109CDF80C80DFF8BC81EC
:101E9C008DF82A3023469A4613F8012B0AB1252ACD
:101EAC00F9D1BAEB040B0BD05B46224629463046DF
:101EBC00FFF793FF013000F0AA80099A5A44099267
:101ECC009AF80030002B00F0A28000234FF0FF3274
:101EDC00CDE905230AF1010A049307938DF85330D9
:101EEC001A935446052214F8011B584800F042FD81
:101EFC00049AD8B9D10644BF20238DF85330130768
:101F0C0044BF2B238DF853309AF800302A2B15D070
:101F1C00544600204FF00A0C079A214611F8013B59
:101F2C00303B092B4ED9B0B1079214E0A0EB08035B
:101F3C0009FA03F31343A2460493D2E7039B191D3A
:101F4C001B680391002BBBBF5B4242F0020207935C
:101F5C000793B8BF049223782E2B0CD163782A2BCD
:101F6C0035D1039B02341A1D1B680392002BB8BF9A
:101F7C004FF0FF330593DFF8D8A0032250462178A9
:101F8C0000F0F8FC40B14023A0EB0A0003FA00F08B
:101F9C00049B01340343049314F8011B06222D48BF
:101FAC008DF8281000F0E6FC00283FD02A4B1BBB14
:101FBC00039B073323F0070308330393099B3B442C
:101FCC00099367E70C4601200CFB0232A5E70023BE
:101FDC004FF00A0C194601340593204610F8012BDA
:101FEC00303A092A03D9002BC5D00591C3E7044622
:101FFC0001230CFB0121F0E703AB00932A4630468A
:10200C00164B04A9AFF300800746781CD6D16B6E33
:10201C00D90705D4AB899A0502D4A86D00F043FC0E
:10202C00AB895B063FF512AF099811E703AB009340
:10203C002A463046094B04A900F082F8E4E700BFB9
:10204C00C42D0008E42D0008A42D00086E2D0008F6
:10205C00742D0008782D000800000000E71D000812
:10206C002DE9F047164699468A680B690746934254
:10207C00B8BF1346336091F843200C46DDF820803E
:10208C000AB1013333602368990642BF33680233C7
:10209C003360256815F0060506D104F1190AE368CA
:1020AC0032689B1AAB4228DC94F84320131E22683A
:1020BC0018BF012392062DD44946384604F1430239
:1020CC00C047013020D02368E56803F00603042BD9
:1020DC0018BF002532684FF00006A36808BFAD1A80
:1020EC00226908BF25EAE5759342C4BF9B1AED1817
:1020FC001A34B5421AD1002008E001235246494651
:10210C003846C047013003D14FF0FF30BDE8F087AF
:10211C000135C4E73020E11881F843005A1C94F8CB
:10212C0045102244023382F84310C5E701232246AE
:10213C0049463846C0470130E6D00136D9E70000A1
:10214C002DE9FF470F7E9146782F80460C469A4624
:10215C000C9D01F1430207D8622F0AD8002F00F022
:10216C00D980582F00F0A48004F1420584F8427005
:10217C003AE0A7F16303152BF6D801A151F823F02F
:10218C00E5210008F92100087521000875210008D7
:10219C007521000875210008F92100087521000837
:1021AC007521000875210008752100080723000817
:1021BC0029220008E9220008752100087521000871
:1021CC002923000875210008292200087521000820
:1021DC0075210008F12200082B681A1D1B682A6063
:1021EC0004F1420584F842300123A4E020682968F8
:1021FC00060601F104030AD50E682B60002E03DAE3
:10220C002D23764284F843300A235E4819E00E6889
:10221C0010F0400F2B6018BF36B2EFE72B68206828
:10222C00191D2960010601D51E6802E04606FBD582
:10223C001E886F2F0CBF08230A235248002184F8F4
:10224C0043106568002DA8BF2168A560A4BF21F0CC
:10225C00040121600EB9002D4DD01546B6FBF3F1EB
:10226C0003FB1167C75D05F8017D3746BB420E467F
:10227C00F4D9082B0BD12368DE0708D523696168D4
:10228C009942DEBF302305F8013C05F1FF35521BA6
:10229C0022614B4621464046CDF800A003AAFFF729
:1022AC00DFFE01304CD14FF0FF3004B0BDE8F087B9
:1022BC00344881F845702968236851F8046B29600B
:1022CC001D0614D5DF0744BF43F0200323601EB95D
:1022DC00236823F0200323601023AFE7236843F027
:1022EC00200323607823284884F84530E3E7590617
:1022FC0048BFB6B2E6E71546BBE72B682668181D43
:10230C006169286035061B6801D5196002E070060A
:10231C00FBD51980002315462361BAE72B680021F1
:10232C001A1D2A601D686268284600F023FB08B15C
:10233C00401B606063682361002384F84330A8E786
:10234C002A46494640462369D0470130ABD0236822
:10235C009B0713D4E068039B9842B8BF1846A4E7C8
:10236C000123324649464046D04701309BD00135C7
:10237C00E36803995B1AAB42F2DCEBE7002504F14E
:10238C001906F5E77F2D0008902D000838B50023BD
:10239C00054D044608462B60FEF7AAFA431C02D1F1
:1023AC002B6803B1236038BDAC000020F8B50E4695
:1023BC001446054618B183690BB900F0D5F9214BC9
:1023CC009C422BD16C68A369A360A3891A072FD5F3
:1023DC0023696BB323692068F6B2C01A6369374668
:1023EC00834204DC2146284600F02AF930BBA3685E
:1023FC000130013BA36023685A1C22601E70636984
:10240C00834204D0A389DB0706D50A2E04D12146CA
:10241C00284600F015F988B93846F8BD0A4B9C429D
:10242C0001D1AC68CFE7094B9C4208BFEC68CAE706
:10243C002146284600F00CF80028CBD04FF0FF378F
:10244C00EAE700BFC42D0008E42D0008A42D000805
:10245C00324B70B51D6806460C4625B1AB6913B9F5
:10246C00284600F081F92E4B9C420FD16C68A38951
:10247C00B4F90C2019072CD4DD0611D409233360D0
:10248C0042F040034FF0FF30A3813EE0254B9C42CD
:10249C0001D1AC68EBE7244B9C4208BFEC68E6E743
:1024AC00580712D5616B41B104F14403994202D033
:1024BC003046FFF745FA00236363A38923F0240316
:1024CC00A3810023636023692360A38943F008037D
:1024DC00A38123694BB9A38903F42073B3F5007F5F
:1024EC0003D02146304600F005FAA089B4F90C203F
:1024FC0010F001030AD00023A36063695B42A3615F
:10250C00236943B910F08000BAD170BD810758BF60
:10251C006369A360F4E70020F7E700BF1800002010
:10252C00C42D0008E42D0008A42D0008062008B5D1
:10253C0000F0BAFA0120FEF767F900008A89F8B5B5
:10254C00054610070C4657D44B68002B04DC0B6C6B
:10255C00002B01DC0020F8BDE66A002EFAD0002327
:10256C0012F480522F682B6032D0606DA3895A0709
:10257C0005D56368C01A636B0BB1236CC01A0023BA
:10258C000246E66A2846216AB047431CA38906D155
:10259C0029681D292CD8294ACA40D60728D50022DB
:1025AC0062602269D904226004D5421C01D12B68D7
:1025BC0003B96065616B2F600029CBD004F1440333
:1025CC00994202D02846FFF7BBF900206063C2E7AE
:1025DC00216A01232846B047411CC7D12B68002B28
:1025EC00C4D01D2B01D0162B01D12F60B2E7A389CB
:1025FC0043F04003A381AEE70F69002FAAD09307E5
:10260C0018BF00230E6808BF4B69F61B0F608B6068
:10261C00002E9FDD33463A462846216AD4F828C05E
:10262C00E047002806DCA3894FF0FF3043F040035D
:10263C00A38190E70744361AEAE700BF0100402067
:10264C0038B50B6905460C4613B90025284638BD2C
:10265C0018B183690BB900F087F8144B9C421BD15D
:10266C006C68B4F90C30002BEFD0626ED00704D438
:10267C00990502D4A06D00F015F928462146FFF704
:10268C005DFF636E0546DA07E0D4A3899B05DDD4B4
:10269C00A06D00F008F9D9E7054B9C4201D1AC685C
:1026AC00DFE7044B9C4208BFEC68DAE7C42D000856
:1026BC00E42D0008A42D0008002310B50446C0E941
:1026CC000033C0E90433836081814366C281836136
:1026DC00194608225C30FFF795F8054B24626362BB
:1026EC00044BA362044BE362044B236310BD00BF95
:1026FC00ED2A00080F2B0008472B00086B2B000855
:10270C00014900F0AFB800BF4D260008682270B533
:10271C004D1E55430E4605F17401FFF779F9044639
:10272C0040B10021C0E900160C30A06005F1680230
:10273C00FFF768F8204670BD014800F0B3B800BF41
:10274C00A9000020014800F0AEB800BFA90000208D
:10275C00014800F0A7B800BFAA000020014800F013
:10276C00A2B800BFAA00002010B50446FFF7F0FF86
:10277C00A3691BB1BDE81040FFF7F0BFC4E91233E9
:10278C002365134B134A1B68A262A34208BF0123A3
:10279C00204608BFA36100F01FF86060204600F0DF
:1027AC001BF8A060204600F017F800220421E0601E
:1027BC006068FFF781FF01220921A068FFF77CFF09
:1027CC0002221221E068FFF777FF0123A361D1E712
:1027DC00BC2C00080D270008F8B50746FFF7ACFF26
:1027EC001E4B1E68B36913B93046FFF7BDFF483660
:1027FC00D6E90134013B03D533680BB33668F7E7F0
:10280C00B4F90C50D5B9164B04F15800E360656669
:10281C0000F047F8FFF796FF08222946C4E9015556
:10282C00C4E904552560A56104F15C00FEF7EAFFDC
:10283C00C4E90D55C4E912552046F8BD6834D9E7F2
:10284C0004213846FFF762FF044630600028D5D1DA
:10285C00FFF778FF0C233B60EEE700BFBC2C0008B1
:10286C000100FFFF2DE9F84306468846002700F1DA
:10287C004804D4E90195B9F1010905D52468002C67
:10288C00F7D13846BDE8F883AB89012B07D9B5F9E8
:10289C000E30013303D029463046C0470743683514
:1028AC00E9E770477047704770B50E46B1F90E10E6
:1028BC00144600291D4696B008DA0022B6F90C30F1
:1028CC002A601A0610D44FF480630EE06A4600F0BA
:1028DC006DF90028F1DB019A02F47042A2F5005365
:1028EC005A425A412A60EEE740230020236016B07A
:1028FC0070BD00008B8973B59D0706460C4607D545
:10290C0004F14703236023610123636102B070BDAE
:10291C006A4601ABFFF7C8FF009905463046FFF742
:10292C0077F848B9B4F90C309A05EFD423F00303C7
:10293C0043F00203A381E3E70D4BB362A38920604C
:10294C0043F08003A381009B20616361019B5BB119
:10295C003046B4F90E1000F03BF928B1A38923F0EE
:10296C00030343F00103A381A0890543A581CDE7AF
:10297C000D270008034610B5C9B20244934218460D
:10298C0001D1002003E0047801338C42F6D110BD54
:10299C000A44914200F1FF3300D1704710B511F891
:1029AC00014B914203F8014FF9D110BD884210B58B
:1029BC0001EB020402D98442234607D8431EA142EC
:1029CC0008D011F8012B03F8012FF8E70146024457
:1029DC008A4200D110BD13F8014D02F8014DF7E702
:1029EC000148FFF75FBF00BFA80000200148FFF7B8
:1029FC005ABF00BFA80000202DE9F04180461446C4
:102A0C000E4621B91146BDE8F041FFF701B82AB9CD
:102A1C00FEF796FF25462846BDE8F08100F0FAF84F
:102A2C008442074602D8B4EB500F12D821464046D8
:102A3C00FEF7EEFF05460028EDD0BC42224631469B
:102A4C0028BF3A46FFF7A4FF31464046FEF778FF11
:102A5C00E1E73546DFE71F2938B504460D4604D9B2
:102A6C00162303604FF0FF3038BD426C12B152F8A0
:102A7C0021304BB9204600F031F82A460146204659
:102A8C00BDE8384000F018B8012B0AD0591C03D10E
:102A9C00162303600120E7E70024284642F825406E
:102AAC0098470020E0E70000024B01461868FFF74A
:102ABC00D2BF00BF1800002038B50023064D0446D5
:102ACC00084611462B60FDF78FFE431C02D12B6884
:102ADC0003B1236038BD00BFAC000020FDF77DBE04
:102AEC0010B50C46B1F90E1000F09CF80028ABBFE5
:102AFC00636DA3891B1823F48053ACBF6365A3815A
:102B0C0010BD2DE9F0411F468B890546DB050C46AF
:102B1C00164605D502230022B1F90E1000F068F814
:102B2C00A389324623F48053A38128463B46B4F94B
:102B3C000E10BDE8F04100F017B810B50C46B1F915
:102B4C000E1000F055F8431CA38915BF606523F4E3
:102B5C00805343F48053A38118BFA38110BDB1F9F6
:102B6C000E1000F013B8000038B5044608461146A4
:102B7C000022054D2A601A46FDF76DFE431C02D15A
:102B8C002B6803B1236038BDAC00002038B500239E
:102B9C00054D044608462B60FDF779FE431C02D117
:102BAC002B6803B1236038BDAC00002038B500237E
:102BBC00064D0446084611462B60FDF773FE431C78
:102BCC0002D12B6803B1236038BD00BFAC000020DC
:102BDC0038B50023054D044608462B60FDF771FE01
:102BEC00431C02D12B6803B1236038BDAC0000201C
:102BFC0038B50446084611460022054D2A601A468F
:102C0C00FDF769FE431C02D12B6803B1236038BD6C
:102C1C00AC00002051F8043C181F002BBCBF0B5813
:102C2C00C018704738B50446084611460022054DB9
:102C3C002A601A46FDF7F2FD431C02D12B6803B142
:102C4C00236038BDAC000020F8B500BFF8BC08BC50
:102C5C009E467047F8B500BFF8BC08BC9E4670474E
:102C6C0025640000010000000400000002000000C8
:102C7C00050000000300000000000000206F7376C8
:102C8C006F6A656E6120706F656E610000000000F8
:102C9C0002030405060708090A0B0C0D0E0F101091
:102CAC0000000000000000000102030406070809F0
:102CBC001C0000205245454E54206D616C6C6F63B6
:102CCC0020737563636565646564002F6275696C58
:102CDC00642F676E752D746F6F6C732D666F722D0C
:102CEC0073746D33325F31302E332D323032312EDE
:102CFC0031302E32303231313130352D31313030BE
:102D0C002F7372632F6E65776C69622F6E65776CAB
:102D1C0069622F6C6962632F7374646C69622F72C1
:102D2C00616E642E63002C2066756E6374696F6E21
:102D3C003A2000617373657274696F6E202225737B
:102D4C0022206661696C65643A2066696C65202294
:102D5C002573222C206C696E6520256425732573E0
:102D6C000A00232D302B2000686C4C0065666745EB
:102D7C0046470030313233343536373839414243E7
:102D8C004445460030313233343536373839616298
:102D9C006364656600000000000000000000000095
:102DAC000000000000000000000000000000000017
:102DBC000000000000000000000000000000000007
:102DCC0000000000000000000000000000000000F7
:102DDC0000000000000000000000000000000000E7
:102DEC0000000000000000000000000000000000D7
:082DFC000000000000000000CF
:042E04003101000890
:042E08000D010008B0
:102E0C000200000004000000080000000024F40090
:102E1C0010000000010000001C0000200000000059
:102E2C00C42D0008E42D0008A42D000800000000AB
:102E3C000000000000000000000000000000000086
:102E4C000000000000000000000000000000000076
:102E5C000000000000000000000000000000000066
:102E6C000000000000000000000000000000000056
:0C2E7C000000000000000000000000004A
:040000050800097571
:00000001FF
